{
    "contractName": "SimpleStorage",
    "abi": [
        {
            "inputs": [
                {
                    "internalType": "uint256",
                    "name": "_favoriteNewNumber",
                    "type": "uint256"
                }
            ],
            "name": "store",
            "outputs": [],
            "stateMutability": "nonpayable",
            "type": "function"
        }
    ],
    "bytecode": "6080806040523460df57600160ff195f5416175f556058600155605719600255600354600181811c9116801560d6575b602082101460c257601f8111607d575b50600461070760f31b01600355600480546001600160a01b031916735b38da6a701c568545dcfcb03fcb875f56beddc4179055606e90816100e48239f35b60035f52601f0160051c7fc2575a0e9e593c00f959f8c92f12db2869c3395a3b0502d05e2516446f71f85b908101905b81811060b85750603f565b5f815560010160ad565b634e487b7160e01b5f52602260045260245ffd5b90607f1690602f565b5f80fdfe6004361015600b575f80fd5b5f3560e01c636057361d14601d575f80fd5b346034576020366003190112603457600435600155005b5f80fdfea2646970667358221220f7608617b60fb44a6f4c73f19aaac547bcfb859cc64ca5392b2f60777ced08d564736f6c634300081c0033",
    "sourcePath": "c:/Users/kenar/Desktop/VSCODE/Solidity_Cheat_Sheet/SimpleStorage.sol",
    "compiler": {
        "name": "solc",
        "version": "0.8.28+commit.7893614a"
    },
    "functionHashes": {
        "store(uint256)": "6057361d"
    },
    "gasEstimates": {
        "creation": {
            "codeDepositCost": "22000",
            "executionCost": "infinite",
            "totalCost": "infinite"
        },
        "external": {
            "store(uint256)": "22210"
        }
    }
}